{
  "_format": "hh-sol-artifact-1",
  "contractName": "PaymentReceiver",
  "sourceName": "contracts/PaymentReceiver.sol",
  "abi": [
    {
      "inputs": [
        {
          "internalType": "address",
          "name": "_usdcTokenAddress",
          "type": "address"
        }
      ],
      "stateMutability": "nonpayable",
      "type": "constructor"
    },
    {
      "inputs": [
        {
          "internalType": "address",
          "name": "owner",
          "type": "address"
        }
      ],
      "name": "OwnableInvalidOwner",
      "type": "error"
    },
    {
      "inputs": [
        {
          "internalType": "address",
          "name": "account",
          "type": "address"
        }
      ],
      "name": "OwnableUnauthorizedAccount",
      "type": "error"
    },
    {
      "anonymous": false,
      "inputs": [
        {
          "indexed": true,
          "internalType": "address",
          "name": "previousOwner",
          "type": "address"
        },
        {
          "indexed": true,
          "internalType": "address",
          "name": "newOwner",
          "type": "address"
        }
      ],
      "name": "OwnershipTransferred",
      "type": "event"
    },
    {
      "anonymous": false,
      "inputs": [
        {
          "indexed": true,
          "internalType": "address",
          "name": "from",
          "type": "address"
        },
        {
          "indexed": false,
          "internalType": "uint256",
          "name": "amount",
          "type": "uint256"
        }
      ],
      "name": "UsdcReceived",
      "type": "event"
    },
    {
      "anonymous": false,
      "inputs": [
        {
          "indexed": true,
          "internalType": "address",
          "name": "to",
          "type": "address"
        },
        {
          "indexed": false,
          "internalType": "uint256",
          "name": "amount",
          "type": "uint256"
        }
      ],
      "name": "UsdcWithdrawn",
      "type": "event"
    },
    {
      "stateMutability": "payable",
      "type": "fallback"
    },
    {
      "inputs": [],
      "name": "owner",
      "outputs": [
        {
          "internalType": "address",
          "name": "",
          "type": "address"
        }
      ],
      "stateMutability": "view",
      "type": "function"
    },
    {
      "inputs": [
        {
          "internalType": "uint256",
          "name": "_amount",
          "type": "uint256"
        }
      ],
      "name": "receiveUsdc",
      "outputs": [],
      "stateMutability": "nonpayable",
      "type": "function"
    },
    {
      "inputs": [],
      "name": "renounceOwnership",
      "outputs": [],
      "stateMutability": "nonpayable",
      "type": "function"
    },
    {
      "inputs": [
        {
          "internalType": "address",
          "name": "newOwner",
          "type": "address"
        }
      ],
      "name": "transferOwnership",
      "outputs": [],
      "stateMutability": "nonpayable",
      "type": "function"
    },
    {
      "inputs": [],
      "name": "usdcToken",
      "outputs": [
        {
          "internalType": "contract IERC20",
          "name": "",
          "type": "address"
        }
      ],
      "stateMutability": "view",
      "type": "function"
    },
    {
      "inputs": [],
      "name": "withdrawEther",
      "outputs": [],
      "stateMutability": "nonpayable",
      "type": "function"
    },
    {
      "inputs": [
        {
          "internalType": "uint256",
          "name": "_amount",
          "type": "uint256"
        }
      ],
      "name": "withdrawUsdc",
      "outputs": [],
      "stateMutability": "nonpayable",
      "type": "function"
    },
    {
      "stateMutability": "payable",
      "type": "receive"
    }
  ],
  "bytecode": "0x60806040523480156200001157600080fd5b5060405162000edc38038062000edc833981810160405281019062000037919062000235565b33600073ffffffffffffffffffffffffffffffffffffffff168173ffffffffffffffffffffffffffffffffffffffff1603620000ad5760006040517f1e4fbdf7000000000000000000000000000000000000000000000000000000008152600401620000a4919062000278565b60405180910390fd5b620000be816200010760201b60201c565b5080600160006101000a81548173ffffffffffffffffffffffffffffffffffffffff021916908373ffffffffffffffffffffffffffffffffffffffff1602179055505062000295565b60008060009054906101000a900473ffffffffffffffffffffffffffffffffffffffff169050816000806101000a81548173ffffffffffffffffffffffffffffffffffffffff021916908373ffffffffffffffffffffffffffffffffffffffff1602179055508173ffffffffffffffffffffffffffffffffffffffff168173ffffffffffffffffffffffffffffffffffffffff167f8be0079c531659141344cd1fd0a4f28419497f9722a3daafe3b4186f6b6457e060405160405180910390a35050565b600080fd5b600073ffffffffffffffffffffffffffffffffffffffff82169050919050565b6000620001fd82620001d0565b9050919050565b6200020f81620001f0565b81146200021b57600080fd5b50565b6000815190506200022f8162000204565b92915050565b6000602082840312156200024e576200024d620001cb565b5b60006200025e848285016200021e565b91505092915050565b6200027281620001f0565b82525050565b60006020820190506200028f600083018462000267565b92915050565b610c3780620002a56000396000f3fe6080604052600436106100745760003560e01c8063715018a61161004e578063715018a6146100fa5780637362377b146101115780638da5cb5b14610128578063f2fde38b146101535761007b565b806311eac8551461007d5780631791afaf146100a85780635b06dece146100d15761007b565b3661007b57005b005b34801561008957600080fd5b5061009261017c565b60405161009f91906107f3565b60405180910390f35b3480156100b457600080fd5b506100cf60048036038101906100ca9190610849565b6101a2565b005b3480156100dd57600080fd5b506100f860048036038101906100f39190610849565b610317565b005b34801561010657600080fd5b5061010f6104a0565b005b34801561011d57600080fd5b506101266104b4565b005b34801561013457600080fd5b5061013d610572565b60405161014a9190610897565b60405180910390f35b34801561015f57600080fd5b5061017a600480360381019061017591906108de565b61059b565b005b600160009054906101000a900473ffffffffffffffffffffffffffffffffffffffff1681565b600081116101e5576040517f08c379a00000000000000000000000000000000000000000000000000000000081526004016101dc90610968565b60405180910390fd5b600160009054906101000a900473ffffffffffffffffffffffffffffffffffffffff1673ffffffffffffffffffffffffffffffffffffffff166323b872dd3330846040518463ffffffff1660e01b815260040161024493929190610997565b6020604051808303816000875af1158015610263573d6000803e3d6000fd5b505050506040513d601f19601f820116820180604052508101906102879190610a06565b6102c6576040517f08c379a00000000000000000000000000000000000000000000000000000000081526004016102bd90610a7f565b60405180910390fd5b3373ffffffffffffffffffffffffffffffffffffffff167f0827506b00be51e827bbf3674b416b92f022d9a6c7c92d14423c3070358eca098260405161030c9190610a9f565b60405180910390a250565b61031f610621565b60008111610362576040517f08c379a000000000000000000000000000000000000000000000000000000000815260040161035990610968565b60405180910390fd5b600160009054906101000a900473ffffffffffffffffffffffffffffffffffffffff1673ffffffffffffffffffffffffffffffffffffffff1663a9059cbb6103a8610572565b836040518363ffffffff1660e01b81526004016103c6929190610aba565b6020604051808303816000875af11580156103e5573d6000803e3d6000fd5b505050506040513d601f19601f820116820180604052508101906104099190610a06565b610448576040517f08c379a000000000000000000000000000000000000000000000000000000000815260040161043f90610b2f565b60405180910390fd5b610450610572565b73ffffffffffffffffffffffffffffffffffffffff167f0d1589f631deb2542273b007140b132a18d48a4303d103fe64d353db07e01b57826040516104959190610a9f565b60405180910390a250565b6104a8610621565b6104b260006106a8565b565b6104bc610621565b60006104c6610572565b73ffffffffffffffffffffffffffffffffffffffff16476040516104e990610b80565b60006040518083038185875af1925050503d8060008114610526576040519150601f19603f3d011682016040523d82523d6000602084013e61052b565b606091505b505090508061056f576040517f08c379a000000000000000000000000000000000000000000000000000000000815260040161056690610be1565b60405180910390fd5b50565b60008060009054906101000a900473ffffffffffffffffffffffffffffffffffffffff16905090565b6105a3610621565b600073ffffffffffffffffffffffffffffffffffffffff168173ffffffffffffffffffffffffffffffffffffffff16036106155760006040517f1e4fbdf700000000000000000000000000000000000000000000000000000000815260040161060c9190610897565b60405180910390fd5b61061e816106a8565b50565b61062961076c565b73ffffffffffffffffffffffffffffffffffffffff16610647610572565b73ffffffffffffffffffffffffffffffffffffffff16146106a65761066a61076c565b6040517f118cdaa700000000000000000000000000000000000000000000000000000000815260040161069d9190610897565b60405180910390fd5b565b60008060009054906101000a900473ffffffffffffffffffffffffffffffffffffffff169050816000806101000a81548173ffffffffffffffffffffffffffffffffffffffff021916908373ffffffffffffffffffffffffffffffffffffffff1602179055508173ffffffffffffffffffffffffffffffffffffffff168173ffffffffffffffffffffffffffffffffffffffff167f8be0079c531659141344cd1fd0a4f28419497f9722a3daafe3b4186f6b6457e060405160405180910390a35050565b600033905090565b600073ffffffffffffffffffffffffffffffffffffffff82169050919050565b6000819050919050565b60006107b96107b46107af84610774565b610794565b610774565b9050919050565b60006107cb8261079e565b9050919050565b60006107dd826107c0565b9050919050565b6107ed816107d2565b82525050565b600060208201905061080860008301846107e4565b92915050565b600080fd5b6000819050919050565b61082681610813565b811461083157600080fd5b50565b6000813590506108438161081d565b92915050565b60006020828403121561085f5761085e61080e565b5b600061086d84828501610834565b91505092915050565b600061088182610774565b9050919050565b61089181610876565b82525050565b60006020820190506108ac6000830184610888565b92915050565b6108bb81610876565b81146108c657600080fd5b50565b6000813590506108d8816108b2565b92915050565b6000602082840312156108f4576108f361080e565b5b6000610902848285016108c9565b91505092915050565b600082825260208201905092915050565b7f416d6f756e74206d7573742062652067726561746572207468616e207a65726f600082015250565b600061095260208361090b565b915061095d8261091c565b602082019050919050565b6000602082019050818103600083015261098181610945565b9050919050565b61099181610813565b82525050565b60006060820190506109ac6000830186610888565b6109b96020830185610888565b6109c66040830184610988565b949350505050565b60008115159050919050565b6109e3816109ce565b81146109ee57600080fd5b50565b600081519050610a00816109da565b92915050565b600060208284031215610a1c57610a1b61080e565b5b6000610a2a848285016109f1565b91505092915050565b7f55534443207472616e73666572206661696c6564000000000000000000000000600082015250565b6000610a6960148361090b565b9150610a7482610a33565b602082019050919050565b60006020820190508181036000830152610a9881610a5c565b9050919050565b6000602082019050610ab46000830184610988565b92915050565b6000604082019050610acf6000830185610888565b610adc6020830184610988565b9392505050565b7f55534443207769746864726177616c206661696c656400000000000000000000600082015250565b6000610b1960168361090b565b9150610b2482610ae3565b602082019050919050565b60006020820190508181036000830152610b4881610b0c565b9050919050565b600081905092915050565b50565b6000610b6a600083610b4f565b9150610b7582610b5a565b600082019050919050565b6000610b8b82610b5d565b9150819050919050565b7f4574686572207769746864726177616c206661696c6564000000000000000000600082015250565b6000610bcb60178361090b565b9150610bd682610b95565b602082019050919050565b60006020820190508181036000830152610bfa81610bbe565b905091905056fea2646970667358221220525ad5557453c66a5219bb18b1212379409f8798432fcfa1df543cd7e5706e2d64736f6c63430008140033",
  "linkReferences": {},
  "deployedLinkReferences": {}
}